:100000000C942A000C94F9000C9447000C944700BF
:100010000C9447000C9447000C9447000C94630127
:100020000C9447000C9447000C94B4010C944700C6
:100030000C9447000C942D010C9447000C9447003D
:100040000C9447000C9447000C9447000C94470014
:100050000C94470011241FBECFE5D8E0DEBFCDBF12
:1000600010E0A0E6B0E0E6E4F4E002C005900D92F6
:10007000A836B107D9F721E0A8E6B0E001C01D928B
:10008000AB32B207E1F70E9449000C9421020C94B4
:1000900000000E94670080E090E00895F89480914D
:1000A000EC008F5F8093EC0008958091EC0081500C
:1000B0008093EC00811101C07894089510BC8CE00D
:1000C00089B986E880BD88E98AB9789408958FEF68
:1000D00087BB84BB8ABB11BA0E945E0085B7836070
:1000E00085BF8BB780648BBF08958CB95D9BFECFB5
:1000F00008950F931F93CF93DF93C82F062FD42F0C
:10010000122F0E944E0080916B00E82FF0E0AF01AB
:100110004F5F5F4F4F71552720916A0030E04217C3
:10012000530771F48FEF0E94750080E00E94750004
:100130008FEF0E9475008EED0E9475008DEAF9CF59
:10014000EE0FFF1FEE0FFF1FE459FF4F01831383D4
:10015000D283C0838F5F8F7180936B00DF91CF91CB
:100160001F910F910C945500DF92EF92FF920F9325
:100170001F93CF93DF93C3E2D1E000E010E0EE24C1
:10018000E394F12C8981811124C0488140FF23C070
:100190004E7F4883202F65EC80E10E9479008881A2
:1001A0004091ED0084FF0AC09701002E01C0220F8C
:1001B0000A94EAF7242B2093ED000DC0C701002E0E
:1001C00001C0880F0A94EAF7809584238093ED009C
:1001D00002C0815089830F5F1F4F229604301105A2
:1001E00089F6DF91CF911F910F91FF90EF90DF90F3
:1001F00008951F920F920FB60F9211242F933F93E1
:100200004F935F936F937F938F939F93AF93BF931E
:10021000EF93FF938091EE009091EF0091609093A7
:10022000EF008093EE004091EE005091EF0020E04F
:1002300069EC80E10E947900FF91EF91BF91AF914D
:100240009F918F917F916F915F914F913F912F91EE
:100250000F900FBE0F901F9018951F920F920FB620
:100260000F9211242F933F938F939F93EF93FF93BC
:100270005F9B1EC0809102012091010190E00196D8
:100280008F71992730E08217930789F08CB1E09144
:10029000020191E09E0F90930201F0E0ED5FFE4FAE
:1002A0008083809102018F7180930201E1CF579882
:1002B000FF91EF919F918F913F912F910F900FBEE2
:1002C0000F901F9018951F920F920FB60F92112446
:1002D0002F933F934F935F936F937F938F939F934E
:1002E000AF93BF93EF93FF93809169008F5F8093EB
:1002F0006900909168009F5F909368006091620030
:100300000E941502911114C09091600060916100EB
:10031000961761F080916400890F80936000E091EE
:100320006500F0916600309709F009951092690018
:10033000809168006CE00E941502911104C0109237
:1003400068000E94B400FF91EF91BF91AF919F911F
:100350008F917F916F915F914F913F912F910F906E
:100360000FBE0F901F9018951F920F920FB60F920D
:100370001124CF92DF92FF920F931F932F933F93FD
:100380004F935F936F937F938F939F93AF93BF939D
:10039000CF93DF93EF93FF9300EF10E0C0E0D0E046
:1003A000CC24C394D12CF09000018F2D90E00C2E22
:1003B00002C0959587950A94E2F780FF18C0F8016E
:1003C00080819181019791838083892B81F420E042
:1003D00040E068EC81E00E947900C6010C2E01C06B
:1003E000880F0A94EAF78095F822F092000121968E
:1003F0000E5F1F4FC830D105B1F6FF91EF91DF912D
:10040000CF91BF91AF919F918F917F916F915F91AC
:100410004F913F912F911F910F91FF90DF90CF90BF
:100420000F900FBE0F901F901895991B79E004C094
:10043000991F961708F0961B881F7A95C9F7809523
:060440000895F894FFCFBF
:080446001F000400FF0000008C
:00000001FF
