S01600004C69667453696D756C6174696F6E2E737265635A
S11300000C942A000C9410030C9447000C944700A1
S11300100C9447000C9447000C9447000C947A030A
S11300200C9447000C9447000C94CB030C944700A9
S11300300C9447000C9444030C9447000C94470020
S11300400C9447000C9447000C9447000C94470010
S11300500C94470011241FBECFE5D8E0DEBFCDBF0E
S113006010E0A0E6B0E0E4E7F8E002C005900D92ED
S1130070AE37B107D9F721E0AEE7B0E001C01D9279
S1130080A636B207E1F70E9449000C9438040C9498
S113009000000E94FF000E94F60089E690E00E94A2
S11300A0F1000E94DD0280E090E00895882359F079
S11300B080FD0BC090E09F5F869580FD08C098305E
S11300C0D1F788E0089580E0089580E00895892FAD
S11300D008950F931F93CF93DF938C01FC018081CC
S11300E0813079F4C2E7D0E088E40E940D0182E017
S11300F00E94EE0089918111F8CFF801808181304E
S113010041F00E945600805D0E940D018AE00E9429
S11301100D01DF91CF911F910F910895F894809173
S113012019018F5F809319010895809119018150FD
S113013080931901811101C0789408950F931F933E
S1130140CF93DF930E948E00909197008091980046
S1130150981759F084E0989FE0011124C756DF4FA7
S11301609F5F9F719093970002C0C0E0D0E00E940F
S113017095002097C9F00091600010916100F0E0B3
S113018000361F0789F0D80112969C911297888136
S1130190892331F01396ED91FC911497CE010995C2
S11301A0F80100811181EBCFDF91CF911F910F9165
S11301B0089512BE8BE083BF8DE78CBF89B7826040
S11301C089BF80E891E09BBD8ABD1DBC1CBC1FBCDF
S11301D08DE08EBD89B7806189BF08958093290120
S11301E008959093200180931F01089510BC8CE022
S11301F089B986E880BD88E98AB9789408958FEF33
S113020087BB84BB8ABB11BA0E94F60085B78360A2
S113021085BF8BB780648BBF08958CB95D9BFECF7F
S113022008950F931F93CF93DF93C82F062FD42FD6
S1130230122F0E948E0080919800E82FF0E0AF0109
S11302404F5F5F4F4F7155272091970030E0421761
S1130250530771F48FEF0E940D0180E00E940D019D
S11302608FEF0E940D018EED0E940D018DEAF9CFF2
S1130270EE0FFF1FEE0FFF1FE756FF4F018313839F
S1130280D283C0838F5F8F7180939800DF91CF9169
S11302901F910F910C949500DF92EF92FF920F93B0
S11302A01F93CF93DF93CEE5D1E000E010E0EE247E
S11302B0E394F12C8981811124C0488140FF23C03B
S11302C04E7F4883202F65EC80E10E9411018881D4
S11302D040911B0184FF0AC09701002E01C0220F28
S11302E00A94EAF7242B20931B010DC0C701002EAA
S11302F001C0880F0A94EAF78095842380931B0138
S113030002C0815089830F5F1F4F2296043011056C
S113031089F6DF91CF911F910F91FF90EF90DF90BD
S11303200895DB018230B1F58C91982F9072282FBB
S11303302076D9F121E0382F307184FF20E0992311
S113034011F094E001C090E08F70890F41E050E01B
S113035002C0440F551F8A95E2F780911D019091C8
S11303601E01BA01609570958623972390931E0110
S113037080931D01332351F080911D0190911E0142
S1130380842B952B90931E0180931D0167EC81E0D3
S11303900C941101833049F4E0911F01F091200184
S11303A0309719F0642FCD01099408959091960027
S11303B0911105C080939600109295000895409184
S11303C09500411104C082508093950015C0E091BE
S11303D09400E41798F421E02E0F20939400F0E0A9
S11303E0EA57FF4F8083421309C066E870E0892F03
S11303F00E94910110929600109294000895CF9358
S1130400809184009091850001969093850080935B
S1130410840083709927892B21F5809183008F5F55
S1130420809383008370A82FB0E0AA0FBB1FA25A49
S1130430BE4F1196EC9111979C9194FF03C094E0E8
S11304409E1BE92FF0E0E459FF4F21E030E0A901C1
S113045002C0440F551F8A95E2F7CA019081892B87
S113046085BB809182008F5F80938200209123015D
S1130470222301F18370622F70E040E150E0082EE6
S113048002C0440F551F0A94E2F746235723452B15
S113049011F080932601082E02C0759567950A9481
S11304A0E2F760FD80932401822F807F19F0909100
S11304B0270101C091E02F7019F02091250101C09E
S11304C021E080912201811104C0309165003F73C5
S11304D001C03FE380912A01811103C08091290169
S11304E001C087E0809328018091210160E4869F08
S11304F0A001112460E8969FC0011124842B832B52
S113050088BB8091260198E0899FA00111249091D5
S1130510240130E2939FC0011124842B30912801DF
S1130520382B40E8249FC0011124832B8BBB90916E
S11305303C0180913D019817B9F00E948E00E09132
S11305403C0181E08E0F80933C01F0E0E25CFE4FC1
S1130550C08180913C018F7180933C010E94950081
S11305608C2F0E94D601E3CF80918000909181006E
S11305709C012F5F3F4F30938100209380008F3F79
S11305809F40C9F480911A018823A9F084E00E9455
S11305900D0186E00E940D0185EA0E940D018AE5A5
S11305A00E940D0180911C010E940D0180911B018C
S11305B0CF910C940D01CF9108958AEC0E940D0106
S11305C0109222011092270110922A011092250103
S11305D01092210110925F0180E280935E011092DB
S11305E06101809360011092630180936201109213
S11305F06501809364018FE18093650080936600B8
S11306000E94D90020E040E061EC81E00E941101E9
S11306108EEF0E940D010E949E000E94FF01FBCFFD
S11306201F920F920FB60F9211242F933F934F9363
S11306305F936F937F938F939F93AF93BF93EF9346
S1130640FF9380911D0190911E01916090931E0172
S113065080931D0140911D0150911E0120E069EC21
S113066080E10E941101FF91EF91BF91AF919F91A1
S11306708F917F916F915F914F913F912F910F9047
S11306800FBE0F901F9018951F920F920FB60F92E6
S113069011242F933F938F939F93EF93FF935F9B2B
S11306A01EC080913D0120913C0190E001968F7124
S11306B0992730E08217930789F08CB1E0913D01CE
S11306C091E09E0F90933D01F0E0E25CFE4F808349
S11306D080913D018F7180933D01E1CF5798FF9147
S11306E0EF919F918F913F912F910F900FBE0F909B
S11306F01F9018951F920F920FB60F9211242F93EB
S11307003F934F935F936F937F938F939F93AF9395
S1130710BF93EF93FF9380917F008F5F80937F005F
S113072090917E009F5F90937E00609167000E948D
S11307302C04911114C09091650060916600961785
S113074061F080916900890F80936500E0916A00EF
S1130750F0916B00309709F0099510927F00809119
S11307607E006CE00E942C04911104C010927E0063
S11307700E944C01FF91EF91BF91AF919F918F9196
S11307807F916F915F914F913F912F910F900FBE89
S11307900F901F9018951F920F920FB60F9211246D
S11307A0CF92DF92FF920F931F932F933F934F9318
S11307B05F936F937F938F939F93AF93BF93CF93E5
S11307C0DF93EF93FF930BE211E0C0E0D0E0CC2481
S11307D0C394D12CF0903B018F2D90E00C2E02C0DD
S11307E0959587950A94E2F780FF18C0F8018081F7
S11307F09181019791838083892B81F420E040E0EB
S113080068EC81E00E941101C6010C2E01C0880F22
S11308100A94EAF78095F822F0923B0121960E5F44
S11308201F4FC830D105B1F6FF91EF91DF91CF9101
S1130830BF91AF919F918F917F916F915F914F91F4
S11308403F912F911F910F91FF90DF90CF900F90C8
S11308500FBE0F901F901895991B79E004C0991F43
S1130860961708F0961B881F7A95C9F78095089506
S1070870F894FFCF26
S113087460000000001F000400FF0000001030703E
S1110884F048656C6C6F2D576F726C640A003F
S9030000FC
